:100000000C946E000C9400000C9400000C94000002
:100010000C9400000C9400000C9400000C94000060
:100020000C9400000C9400000C9400000C94000050
:100030000C9400000C94F4000C9400000C9400004C
:100040000C9400000C9400000C9400000C94000030
:100050000C94A6000C9400000C94C3000C940000B7
:100060000C9400000C9400000C9400000C94000010
:100070000C9400000C9400000C9400001027E8037E
:1000800064000A00010000100001100001000100DE
:10009000000055646172652E2E2E0A0048756D6948
:1000A000646974793A2025642E25640A0054656DCC
:1000B00070657261747572653A2025642E25640A34
:1000C00000536F696C2068756D69646974793A20B2
:1000D00025640A0004000A008E000000F894EE2750
:1000E000EFBBF1E0F5BFE5BFF8E1A895A4B7A77FA6
:1000F000A4BFF0936000E09360008DE0A2E0BB2716
:10010000ED938A95E9F780E094E0A0E0B1E0ED930B
:100110000197E9F7E4EDF0E085919591009761F0A2
:10012000A591B59105901590BF01F00105900D9234
:100130000197E1F7FB01F0CFE0E0EEBBEFEFEDBFA1
:10014000E4E0EEBFC0E0D2E00C94690129D31A9339
:100150000A931091C0000091C600E12FEC7181F468
:10016000E42D4394F0E0E050FE4F0083E8E0E41516
:1001700009F444246394E8E0E61511F46624F09A47
:100180000991199110C00CD3BB2069F0BA94E82DE5
:100190008394F0E0E85FFD4FE081E093C600E8E083
:1001A000E81509F48824E991EFBFF991E9911895D0
:1001B0001A931A2FE8E0EB15E9F3F894BB2021F429
:1001C000E091C000E07261F4E92D9394F0E0E85F03
:1001D000FD4F1083E8E0E91509F49924B39402C0B7
:1001E0001093C60078941AC018951A931A2FE12F0D
:1001F000E066E0937C0083E48A95F1F7E0917A0071
:10020000E064E0937A00E0917A00E071E1F3E0913C
:100210007A00E061E0937A00E09179001991089505
:10022000E0E0E5B9E1E003C0E1E0E5B9E0E0E4B930
:100230000895F6DF1898A4E1B0E060D4189A88EC2D
:100240008A95F1F70895F0DF8DE08A95F1F7189916
:1002500004C087E08A95F1F7FACF8DE08A95F1F72F
:10026000189B04C087E08A95F1F7FACF8DE08A9554
:10027000F1F70895CED220E030E05524E8E05E1694
:1002800008F5189904C087E08A95F1F7FACF8DE058
:100290008A95F1F700E010E0189B06C00F5F1F4F32
:1002A00087E08A95F1F7F8CF0432E0E01E0734F0DA
:1002B000F901EE0FFF1F31969F0102C0220F331F7D
:1002C0005394DCCF8DE08A95F1F7F901A9D22496F9
:1002D00008952897E0E8E0936100E0E0E093610092
:1002E000E2B9E1B9E5B9E1E0E4B9E0E0E8B9E1E0BB
:1002F000E7B9E0E2EBB9E0E5EAB9E0E0E4BDE5BD8D
:10030000E6BDE7BDE8BDE0938000EDE0E09381004D
:10031000E0E0E0938500E0938400E0938700E093C1
:100320008600ECE4E0938900E0E4E0938800E0E0FC
:10033000E0938B00E0938A00E093B600E093B00076
:10034000E093B100E093B200E093B300E093B40017
:10035000E0936900EDBBE0936800E0936E00E2E09B
:10036000E0936F00E0E0E0937000E093C000E8ED00
:10037000E093C100E6E0E093C200E0E0E093C50056
:10038000E1E8E093C400E0E0E093C900E0E8E0BF0A
:10039000E0E0E0937F00E0937E00E0E6E0937C0005
:1003A000E3EAE0937A00E0E0E0937B00A895E8E1DF
:1003B000E0936000E8E0E093600078945E9A189A19
:1003C000409AA0EDB7E09AD334DF3DDF53DFAF01B1
:1003D00051DFEE83FF834EDF8F014CDF9F014ADF49
:1003E000EC83FD83A1E0B0E089D3A0E0FEDEFF272F
:1003F000662777279BD2D9D1E0E0F0E06FE773E47E
:10040000C8D2D3D1E7EDF3EA60EF7FE313D3E883FB
:10041000F9836A837B83E6E9F0E0CE16DF061CF4FD
:10042000E1E0EA15E1F4AA24A881B9818A819B81DF
:10043000E0E0F0E06CE872E441D378F44098A4E6A0
:10044000B0E05CD3E2E9F0E0FA93EA9380E068D1AF
:100450002296A8E8B3E152D3409ACC24DD24A4E646
:10046000B0E04CD3ECE9F0E0FA93EA93FA01A6D1BC
:10047000EC85FD85A3D1A8D1EDEAF0E0FA93EA93EB
:10048000F8019CD1F9019AD19FD1E1ECF0E0FA9307
:10049000EA93EA81FB816C817D8111D28FD184E066
:1004A0003FD12696F60131966F01A0EDB7E026D335
:1004B0008BCFFFCFAED18D013C81A32F79DED80148
:1004C000ED91FD913196FE93EE93AAD12596089574
:1004D000BA93AA9326979BD110E0AC85BD85E0E046
:1004E000F0E0ED93FC93EA89FB893196EA8BFB8B74
:1004F0003197E4912E2FE03009F40BC1E12FE03069
:1005000031F4253211F411E001C064D101C1E130B0
:10051000A1F4253211F45ED1FAC012E040E000E00F
:100520002D3211F401E0F4C02B3211F44BE2F0C093
:10053000203211F440E2ECC002C0E23039F450E065
:1005400013E0203311F40068E3C003C0E33009F086
:10055000DFC0203310F02A3308F007C0AAE05A9F0A
:10056000502DE22FE0535E0FD3C0E22FE33639F473
:1005700038D1E889F989A481AA9339D1C8C0E33771
:1005800029F42FD13AD1F3D01E2F07C0E03749F418
:1005900028D133D1F8D01E2F086002600F7730E0E9
:1005A0003AC0E43611F0E93611F4046002C0E537D0
:1005B00031F4ECE7F0E0EE83FF8315E00CC0E835A2
:1005C00011F4086003C0E83709F0A1C0E6E8F0E0E4
:1005D000EE83FF8314E002FF15C003D1A889B98917
:1005E0001496ED91FD91EA87FB87AB85AA2322F44F
:1005F0001CD1EA87FB874DE2403011F01F5F01C03C
:100600000B7F09C0EED0A889B9891496ED91FC91B1
:100610001197EA87FB8700FD10C0151770F407FFDC
:1006200008C002FF04C00B7F242F115001C020E33B
:1006300001C020E2CFD05150F0CF312F01FF16C0C2
:10064000303099F003FF06C0EE81FF812591EE83E3
:10065000FF8305C0AE81BF812D91AE83BF83BAD029
:10066000503009F051503150EBCF48C020E3EE81BB
:10067000FF81EDD0E887F987EE81FF813296EE8326
:10068000FF83E885F985AA85BB85AE17BF0750F0C3
:100690002F5FA885B985EA85FB85EA1BFB0BEA87F6
:1006A000FB87EFCF2A3328F003FF02C0295F01C088
:1006B000295D04FD19C0213320F4A885B98511975F
:1006C00009F409C0531710F000FF01C011C020E267
:1006D00007FF0AC020E3006102FF06C00B7F4A93B8
:1006E00086D0503009F0515075D0503009F051503B
:1006F0003150A885B985129708F0B8CF00FF07C020
:10070000503029F05150E0E2EA9371D0F9CF10E077
:10071000EACEAC85BD85ED91FD9180D064960895BB
:10072000FF92F82E26971A930A93DE01149600245E
:10073000AF0DB01D8D01E0E0EC83ED83EE83EF8320
:10074000DE0118960024AF0DB01DED91FD91FA93D6
:10075000EA931A930A93EAE5F2E0FA93EA93DE0148
:100760001896B6DE198108812896FF900895BA93ED
:10077000AA93A991B991EE27FF276D91662311F0F5
:100780003196FBCF0895BA93AA93AA27BB27E99184
:10079000F9910590002011F01196FBCFFD0108950D
:1007A000EA93FA93EFB7EA930895E883F9836A83AB
:1007B0007B83A881B9818A819B8108956F2F660F01
:1007C000660B762F48D0089588E0AADF2A96A4E623
:1007D000B0E094C12A93AD85BE85EF85F88909956F
:1007E0000895E889F9893497E88BF98B0895AD85E8
:1007F000BE85EF85F88909950895A889B989149669
:10080000ED91FD91EE83FF83AE81BF8108955A93F0
:100810004A933A932A931A930A9308955D814C81DF
:100820003B812A81198108810895F195E195F04075
:100830000895F09560957095E195FF4F6F4F7F4F4C
:100840000895FE2FFF0FFF0B6F2F7F2F0895059048
:10085000F491E02D08957A936A93FA93EA930895B8
:10086000552342F4503811F4E0FF04C03196691F5B
:10087000791F6BF050E8572711F45F93CAC05F3FB0
:1008800031F0660F000C57956795752F08955F93AB
:1008900000200AF0C9C0C2C050E8192E1522880FE6
:1008A000991F9527550F879550E8072E0522660F4B
:1008B000771F7527550F67950895689401C0E894D0
:1008C0005F93F2DF703818F07F3F08F4A2C056E162
:1008D000571BAAF4519558300EF4593030F0EFEF11
:1008E000FFEF6FEF7FE777F91AC077275523B9F04D
:1008F000EE0FFF1F661F771F5A95D1F710C077279D
:10090000583028F0EF2FF62F672F5850F9CF552386
:1009100031F076956795F795E7955A95D1F70020D0
:100920000AF487DF5F910895689401C0E8943097D6
:1009300060407040B1F0002426F0772312F4009458
:1009400078DF172E7EE1112032F07A95EE0FFF1F2F
:10095000661F111CF9CFEF2FF62F612D5F938ADFF1
:100960005F9108954F93AF01FD01DA01AB01BC0126
:10097000CA01402D012C142E4F910895EA0FFB1F40
:10098000681F0895E095F0956095EF5FFF4F6F4FFA
:1009900008955F9381DF903849F150E8152670384B
:1009A00021F1572F591B2BF112F4DCDFFACF58310C
:1009B00018F0AA27BB278827583028F0AB2FB82F6C
:1009C00088275850F9CF552329F08695B795A795D4
:1009D0005A95D9F7502D512572F0D0DF38F467952C
:1009E000F795E795739513F41FC0BCDF43DF5F9164
:1009F0000895D8F7FBCFEA1BFB0B680B51F010F4FE
:100A00000094C0DF662392F3EE0FFF1F661F7A95F6
:100A1000CBF7EE27FF27BF015F910895EFEFFFEFC0
:100A20006FE77FEF5F910895EFEFFFEF6FE77FE7ED
:100A30005F9108955F9330DF703821F411200AF43C
:100A4000EDCFF2CF903809F4E4CF01240894970B4E
:100A50001BF4D4F30020F3CF792F1F932F933F93F0
:100A60004F931124112722273327A90190E2AE17B3
:100A7000BF078607410730F0AE1BBF0B860B410B4B
:100A8000089401C08894551F221F331F111CAA1FF0
:100A9000BB1F881F441F9A9551F7F901612D4F9193
:100AA0003F912F911F91662332F0550FEE1FFF1FCC
:100AB000661F7A954BF2D4DE5F91089599239AF0E0
:100AC000772342F0971748F029F4AE17BF0786073F
:100AD00020F031F09894889408959894089408959B
:100AE0001894889408957723C2F7971798F3A9F775
:100AF000EA17FB07680788F399F3ECCF109639F0F3
:100B0000A89588E893E10197F1F71197C9F708953F
:00000001FF
