:040000000C943E001E
:100004000C9400000C9400000C9400000C9400006C
:100014000C9400000C9400000C9400000C9400005C
:100024000C9400000C9400000C9400000C9400004C
:100034000C9400000C9400000C9400000C9400003C
:100044000C9400000C9400000C9400000C9400002C
:100054000C9400000C9400000C9400000C9400001C
:100064000C9400000C9400000C9400000C9400000C
:100074000C9400000C940000F894EE27EFBBF1E020
:10008400F5BFE5BF8DE0A2E0BB27ED938A95E9F7C4
:1000940080E094E0A0E0B1E0ED930197E9F7E0E0BF
:1000A400EEBBEFEFEDBFE4E0EEBFC0E0D2E00C94B6
:1000B400D400289A299A2A982B9A2C9A16C0289AFE
:1000C40029982A9A09C0289A29982A9A2B9A2C9A0C
:1000D4000CC0289A299A2A982B9A2C982D9A08951C
:1000E400289829982A982B982C982D980895FBD015
:1000F400479A83E48A95F1F74798369904C087E0D4
:100104008A95F1F7FACF369B02C0F2D0FCCFF6D035
:1001140045C0E9D04424E3E04E1620F4E8DF0AD1D8
:100124004394F9CF37C0DFD0459A83E48A95F1F739
:100134004598349904C087E08A95F1F7FACF349B47
:1001440002C0D6D0FCCFDAD029C0CDD04424E3E01D
:100154004E1620F4E8DFEED04394F9CF1BC0C3D091
:10016400439A83E48A95F1F74398329904C087E06F
:100174008A95F1F7FACF329B02C0BAD0FCCFBED039
:100184000DC0B1D04424E3E04E1620F4E8DFD2D011
:100194004394F9CFD801E3E0F0E0F0D08F01099166
:1001A40019910895E0E8E0936100E0E0E0936100D4
:1001B400E2B9E1B9E5B9EFEFE4B9E4E5E8B9E8EAB1
:1001C400E7B9E0E2EBB9E0E5EAB9E0E0E4BDE5BDBA
:1001D400E6BDE7BDE8BDE0938000E0938100E093D5
:1001E4008500E0938400E0938700E0938600E09329
:1001F4008900E0938800E0938B00E0938A00E09309
:10020400B600E093B000E093B100E093B200E09355
:10021400B300E093B400E0936E00E0936F00E093CA
:100224007000E0936900EDBBE0936800E093C100C7
:10023400E093C900E0E8E0BFE0E0E0937B00E093F6
:100244007F00E0937A00ECBDE093BC005E9A48DF47
:10025400A8EEB3E0CBD126975CDFEC83FD8391DF7E
:10026400EA83FB8372DFE883F983AC81BD81549711
:100274008CF425DFACE2B1E0B9D1EA81FB81A8813D
:10028400B981AE17BF0714F424DF01C01CDFACE250
:10029400B1E025C0AA81BB81E881F981EA1BFB0B8F
:1002A400369724F0A881B9815E970CF004C011DF61
:1002B400ACE2B1E014C0A881B981EA81FB81EA1BF8
:1002C400FB0B369724F0AA81BB815E970CF004C027
:1002D400FADEACE2B1E003C0ECDEA4E6B0E086D125
:1002E4002696B9CFFFCF1A930A9300E010E0089541
:1002F4000F5F1F4F87E08A95F1F70895F8016F2F7C
:10030400660F660B762FB3D07BD0662777276F2FC7
:10031400660F660B762FABD0AAE0B7ED83E29DE3C0
:10032400D3D0DF01CB01E0E0F0E060E070E41AD16B
:1003340067D008950E0F1F1FAAE0B0E057C1F195D2
:10034400E195F0400895F09560957095E195FF4F23
:100354006F4F7F4F08950024112490E1AA0FBB1F13
:10036400001C111C0E1A1F0A18F40E0E1F1E01C0C9
:10037400A1609A9599F7FD01D001089504D0EBDFAF
:100384000EF4DDDF0895E894F7FF02C0D8DF689427
:10039400B7FF06C0B195A195B04000F8039400FAE8
:1003A4000895552342F4503811F4E0FF04C0319607
:1003B400691F791F6BF050E8572711F45F9373C0DE
:1003C4005F3F31F0660F000C57956795752F0895C0
:1003D4005F9300200AF072C06BC050E8192E1522FA
:1003E400880F991F9527550F879550E8072E0522EA
:1003F400660F771F7527550F67950895689401C098
:10040400E8945F93F2DF703818F07F3F08F44BC034
:1004140056E1571BAAF4519558300EF4593030F078
:10042400EFEFFFEF6FEF7FE777F91AC077275523D8
:10043400B9F0EE0FFF1F661F771F5A95D1F710C052
:100444007727583028F0EF2FF62F672F5850F9CF21
:10045400552331F076956795F795E7955A95D1F739
:1004640000200AF470DF5F910895689401C0E89455
:10047400309760407040B1F0002426F0772312F4E6
:10048400009461DF172E7EE1112032F07A95EE0F91
:10049400FF1F661F111CF9CFEF2FF62F612D5F93FD
:1004A4008ADF5F910895EE27FF27BF015F910895CA
:1004B400EFEFFFEF6FE77FEF5F910895EFEFFFEF4F
:1004C4006FE77FE75F9108955F9387DF703859F393
:1004D400903849F301240894791F23F424F300206D
:1004E4003AF3ECCF0F921F932F933F934F9311271F
:1004F40022279927689FA0018F9F302D410D591FF6
:100504006B9F300D411D591F8E9F27D0BF9F25D053
:100514006A9F23D0BE9F1DD0AF9F1BD0AE9F110DED
:10052400291F391F491F591FE32FF42F652F522FFD
:100534004F913F912F911F910F9066232AF0550FF1
:10054400EE1FFF1F661F02C073954BF22ADF5F91F7
:100554000895100D211D391F02C0200D311D491FA2
:10056400591F08955F9339DF703821F411200AF47C
:100574009FCFA4CF903809F496CF01240894970B09
:100584001BF4D4F30020F3CF792F1F932F933F93C1
:100594004F931124112722273327A90190E2AE1784
:1005A400BF078607410730F0AE1BBF0B860B410B1C
:1005B400089401C08894551F221F331F111CAA1FC1
:1005C400BB1F881F441F9A9551F7F901612D4F9164
:1005D4003F912F911F91662332F0550FEE1FFF1F9D
:1005E400661F7A954BF2DDDE5F910895109639F01F
:1005F400A89588E893E10197F1F71197C9F7089551
:00000001FF
