:0C0000000C945A000C9400000C940000BA
:10000C000C9400000C9400000C9400000C94000064
:10001C000C9400000C9400000C9400000C94000054
:10002C000C9400000C9400000C9400000C94000044
:10003C000C9400000C9400000C9400000C94000034
:10004C000C9400000C9400000C9400000C94000024
:10005C000C9400000C9400000C9400000C94000014
:10006C000C9400000C9400000C9400000C94000004
:10007C001027E80364000A000100001000011000C2
:10008C000100000000000000256300503A202564A8
:10009C002050433A2025640080C0060008008E00E2
:1000AC0002001202A4000000F894EE27EFBBF1E06E
:1000BC00F5BFE5BF8DE0A2E0BB27ED938A95E9F78C
:1000CC0080E094E0A0E0B1E0ED930197E9F7E6EA77
:1000DC00F0E085919591009761F0A591B59105900F
:1000EC001590BF01F00105900D920197E1F7FB010E
:1000FC00F0CFE0E0EEBBEFEFEDBFE4E0EEBFC0E031
:10010C00D2E00C94E3032C9A2D9889D5189B02C04D
:10011C00E4E40895199B02C0E3E208951A9B02C01F
:10012C00E0E308951B9B02C0EAE208952C982D9AF7
:10013C0076D5189B02C0E3E40895199B02C0E9E34D
:10014C0008951A9B02C0E8E308951B9B02C0E7E3E5
:10015C0008952C982D982E9A2F98A8ECB0E0FED6E6
:10016C00189B02C0E2E40895199B02C0E6E30895CF
:10017C001A9B02C0E5E308951B9B02C0E4E30895BB
:10018C002C982D982E982F9AA8ECB0E0E7D6189BB7
:10019C0002C0E1E40895199B02C0E3E308951A9BA1
:1001AC0002C0E2E308951B9B02C0E1E30895EAE577
:1001BC0008954424552438D570F46624772439D511
:1001CC0030F43CD548D5F30131963F01F8CFF2011C
:1001DC0031962F01F0CF08954424552425D550F5A0
:1001EC006624772426D510F529D53AD531F43DD59A
:1001FC00E0E2F0E060E070E011C020D53DD531F4D4
:10020C0034D5E8E5F0E060E070E008C017D53AD5E9
:10021C0049F42BD5EFE4F0E060E070E04AD684E0DE
:10022C00B7D42896F30131963F01DCCFF201319619
:10023C002F01D4CF0895AA931A930A93EA81F0E080
:10024C00F0978F01AA81A33231F4B3DFCC24DD24E3
:10025C00E0E00C949704E1E0F0E0E017F10749F4DA
:10026C0017D531F4E1E0F0E019D5E1E00C949704F6
:10027C0077C0E2E0F0E0E017F10761F4E0910602EC
:10028C00F0910702309729F4E6E0F2E00CD50C94DB
:10029C00970466C0E3E0F0E0E017F10741F409D5FC
:1002AC0029F4ECE0F2E0FFD40C94970459C0E4E09C
:1002BC00F0E0E017F10761F4E0910202F091030223
:1002CC00309729F4E2E0F2E0EED40C94970448C0A5
:1002DC00E5E0F0E0E017F10741F4F1D429F4E8E0AF
:1002EC00F2E0E1D40C9497043BC0E6E0F0E0E017B8
:1002FC00F10761F4E0910E02F0910F02309729F4AE
:10030C00EEE0F2E0D0D40C9497042AC0E7E0F0E0E1
:10031C00E017F10741F4D9D429F4E4E0F2E0C3D4B6
:10032C000C9497041DC0E8E0F0E0E017F10761F4CD
:10033C00E0910A02F0910B02309729F4EAE0F2E026
:10034C00B2D40C9497040CC0E9E0F0E0E017F1078C
:10035C0039F4C1D429F4E0E1F2E0A5D40C9497046B
:10036C00E0E00C949704DD2001F5A9D419F4E8E041
:10037C00F2E014C08DD421F4E2E0F0E08FD412C08E
:10038C00A4D419F4E4E0F2E009C093D419F4ECE03D
:10039C00F2E004C0A0D431F4E0E1F2E0A2E0B0E07D
:1003AC00A083B183E1E0DE2E42C12197E0E0E88337
:1003BC004424552439D408F594D43BD470F43ED459
:1003CC0061D411F498D405C039D44AD411F46A829A
:1003DC007B82F30131963F01F0CF93D421F0A881B9
:1003EC00B981129709F004C092D498D4249605C010
:1003FC002496F20131962F01DDCFE881E03029F50A
:10040C004424552411D408F56CD413D470F494D42A
:10041C0039D411F470D405C08FD422D411F46A826B
:10042C007B82F30131963F01F0CF6BD421F0A88190
:10043C00B981129709F004C08CD493D499D405C017
:10044C002496F20131962F01DDCFE881E030E9F4FA
:10045C0097D4EAD380F45BD484D414D411F44BD461
:10046C0006C055D47ED4FCD311F44A825B82F201CF
:10047C0031962F01EECF45D421F0A881B981129786
:10048C0009F002C066D44AD42496E881E030D1F455
:10049C0077D4CAD370F47ED4F5D311F42CD405C020
:1004AC0079D4DED311F44A825B82F20131962F01AA
:1004BC00F0CF27D421F0A881B981129709F001C09F
:1004CC0073D42496E881E03029F544245524ACD328
:1004DC0008F507D4AED370F4B1D3CED311F40BD44A
:1004EC0005C0ACD3BDD311F46A827B82F301319683
:1004FC003F01F0CF06D421F0A881B981129709F001
:10050C0004C005D40BD4249605C02496F201319670
:10051C002F01DDCFE881E03029F54424552484D324
:10052C0008F5DFD386D370F407D4A6D311F4E3D344
:10053C0005C002D495D311F46A827B82F301319603
:10054C003F01F0CFDED321F0A881B981129709F0D9
:10055C0004C0FFD306D40CD405C02496F201319606
:10056C002F01DDCFE881E030E9F40AD45DD380F4CB
:10057C00CED3F7D381D311F4BED306C0C8D3F1D3F5
:10058C006FD311F44A825B82F20131962F01EECFC8
:10059C00B8D321F0A881B981129709F002C0D9D340
:1005AC00BDD32496E881E030D1F4EAD33DD370F486
:1005BC00F1D362D311F49FD305C0ECD351D311F412
:1005CC004A825B82F20131962F01F0CF9AD321F04F
:1005DC00A881B981129709F001C0E6D32496E8816D
:1005EC00E03021F5442455241FD300F52197E0E099
:1005FC00E883662477241DD378F420D331D341F4D7
:10060C001DD3E2E0F0E0ED93FC93E1E0E88304C05D
:10061C00F30131963F01EFCFA881A13011F421965F
:10062C0005C02196F20131962F01DECF2196089557
:10063C00E0E0EA93E3E0EA93E7E9F0E0FA93EA9387
:10064C00F4016627772735D4F5016627772731D44F
:10065C0088E09ED22C9608950AD410E000E030E099
:10066C0044245524E1D228F5ABD3E3D268F4E6D286
:10067C0003D311F4AED304C0E1D204D309F43BD3B9
:10068C00F30131963F01F1CFAA81BB81139721F47D
:10069C0011E001E024960DC0A881B981139721F4D3
:1006AC0011E031E0249605C02496F20131962F0119
:1006BC00D9CF103049F544245524B6D228F580D32F
:1006CC00B8D268F439D3D8D211F483D304C034D35C
:1006DC00D9D209F410D3F30131963F01F1CFAA819D
:1006EC00BB81139721F411E001E024960DC0A88181
:1006FC00B981139721F411E031E0249605C02496BA
:10070C00F20131962F01D9CF103001F568D38CD27C
:10071C0078F4FDD226D3B0D211F45BD305C0F7D256
:10072C0020D3B0D209F4E7D2F20131962F01EFCFEA
:10073C00AA81BB81139719F411E001E006C0A881CE
:10074C00B981139711F411E031E024961030E1F4E3
:10075C0046D36AD268F41ED38FD211F43AD304C0B4
:10076C0019D390D209F4C7D2F20131962F01F1CFEF
:10077C00AA81BB81139711F401E005C0A881B9814E
:10078C00139709F431E02496CC20A1F4013031F414
:10079C00E1E0CE2EF40131964F010CC0313031F432
:1007AC00E1E0CE2EF50131965F0104C0113011F459
:1007BC00E1E0CE2E63D324960895E7E2EA93A4E118
:1007CC007ED0E0EFE4B9E0E0E5B9F3DC05DD22979B
:1007DC009ADCE983A9812FDDE883A881A13029F473
:1007EC003BDFCC2011F4BFDD37DFF6DC21DF2296B6
:1007FC00EECFFFCFFDD2A091170201D35EC0F8D28D
:10080C00E095A0911702EA23FFD257C01A931A2F32
:10081C00E0911602EA93E0911702EF70AE2FE12FF0
:10082C00E07FEDD2A4E0E6DFA4E046C0AA93A88165
:10083C00EDDFE881E295E883A881E8DF8AEF90E0BC
:10084C000197F1F721960895E3D2E12FF0E0EE5EE7
:10085C00FD4FE081E00FAE2FE9DF009318021093FB
:10086C0019025FC0A2E0D9D2ACE0E0DFA1E0D5D2A2
:10087C00E0E0E0931902E093180208951A931A2FFE
:10088C001A3031F0E0911A02A0911802AE1750F014
:10089C00E0E0EA93A0911902AF5FA0931902D4DFB4
:1008AC001A3059F0E0911802EF5FE0931802A1E0C2
:1008BC00A1DFA12FBBDFA1E0A2DF19910895A8D27F
:1008CC0000931602FBD2E0911602EA93E8E09CD268
:1008DC0010931A02E12FE058E0931402E12FE05438
:1008EC00E0931502A4E1B0E039D39BD29AD299D20D
:1008FC00A0E28CDF84EF91E00197F1F7A8E296DF9C
:10090C00A4E094DFA5E892DFA6E090DFABDF09C09E
:10091C007FD2D9D2E02FEE0FAE2F08D3A12F06D362
:10092C00E1D21981088123960895BA93AA93269748
:10093C009CD210E0AC85BD858ED1EA89FB893196BD
:10094C00EA8BFB8B3197E4912E2FE03009F40BC12D
:10095C00E12FE03031F4253211F411E001C068D2FE
:10096C0001C1E130A1F4253211F462D2FAC012E0D7
:10097C0040E000E02D3211F401E0F4C02B3211F410
:10098C004BE2F0C0203211F440E2ECC002C0E23085
:10099C0039F450E013E0203311F40068E3C003C0D5
:1009AC00E33009F0DFC0203310F02A3308F007C021
:1009BC00AAE05A9F502DE22FE0535E0FD3C0E22FD6
:1009CC00E33639F43CD2E889F989A481AA933DD263
:1009DC00C8C0E33729F433D23ED208D11E2F07C04A
:1009EC00E03749F42CD237D20DD11E2F08600260AB
:1009FC000F7730E03AC0E43611F0E93611F40460B8
:100A0C0002C0E53731F4ECE7F0E0EE83FF8315E04C
:100A1C000CC0E83511F4086003C0E83709F0A1C038
:100A2C00E6E8F0E0EE83FF8314E002FF15C007D286
:100A3C00A889B9891496ED91FD91EA87FB87AB855E
:100A4C00AA2322F420D2EA87FB874DE2403011F032
:100A5C001F5F01C00B7F09C0F2D1A889B989149618
:100A6C00ED91FC911197EA87FB8700FD10C01517DB
:100A7C0070F407FF08C002FF04C00B7F242F115035
:100A8C0001C020E301C020E2D3D15150F0CF312F6F
:100A9C0001FF16C0303099F003FF06C0EE81FF81D4
:100AAC002591EE83FF8305C0AE81BF812D91AE836E
:100ABC00BF83BED1503009F051503150EBCF48C0FC
:100ACC0020E3EE81FF81F1D1E887F987EE81FF8188
:100ADC003296EE83FF83E885F985AA85BB85AE1730
:100AEC00BF0750F02F5FA885B985EA85FB85EA1B07
:100AFC00FB0BEA87FB87EFCF2A3328F003FF02C0FA
:100B0C00295F01C0295D04FD19C0213320F4A8859B
:100B1C00B985119709F409C0531710F000FF01C0F3
:100B2C0011C020E207FF0AC020E3006102FF06C0EB
:100B3C000B7F4A938AD1503009F0515079D1503003
:100B4C0009F051503150A885B985129708F0B8CFEB
:100B5C0000FF07C0503029F05150E0E2EA9375D104
:100B6C00F9CF10E0EACEAC85BD85ED91FD9184D135
:100B7C00649608957CD18D013C81A32F7FDED80132
:100B8C00ED91FD913196FE93EE9378D125960895D3
:100B9C00FF92F82E26976BD1FE010024EF0DF01D6D
:100BAC0034852585DE0116960024AF0DB01D8D0110
:100BBC00E0E0EE83EF83E887E9872A93A32F44DEF6
:100BCC00DE011A960024AF0DB01DED91FD91FA9344
:100BDC00EA931A930A93E0ECF5E0FA93EA93DE01B8
:100BEC001A96A3DE4BD12A96FF900895BA93AA9336
:100BFC00A991B991EE27FF276D91662311F03196DB
:100C0C00FBCF0895BA93AA93AA27BB27E991F99130
:100C1C000590002011F01196FBCFFD0108952E9840
:100C2C002F98A8ECB0E09AC1E3E0F0E04E165F0616
:100C3C000895E3E0F0E06E167F060895F201A6E059
:100C4C00B0E025D1E050FE4FDF01F301EE0FFF1FA6
:100C5C00AE0FBF1F0895E0E0F0E0ED93FC93089514
:100C6C00ED91FC911197309708954A926A92E4E9BC
:100C7C00F0E0FA93EA930895ED91FD91E130A0E054
:100C8C00FA070895ED91FD91E230A0E0FA0708957E
:100C9C00E0910002F091010230970895E093000278
:100CAC00F09301020895A1E0B0E0A083B183E1E0EC
:100CBC000895E0910C02F0910D0230970895E091A7
:100CCC000802F091090230970895E0910402F09126
:100CDC00050230970895E0911002F09111023097BF
:100CEC0008952497E0E0E883E983EFEFEA83EB8350
:100CFC00662477240895E881F9813196E883F98395
:100D0C000895AA81BB81AF3FEFEFBE070895F201B2
:100D1C00A6E0B0E0BCD0E050FE4F0895DF01EA81C0
:100D2C00FB81EE0FFF1FAE0FBF1FE2E0F0E0ED9373
:100D3C00FC93E1E0EC830895F301A6E0B0E0A7D0CA
:100D4C00E050FE4FDF01F201EE0FFF1FAE0FBF1F91
:100D5C000895AA81BB81E6E00E945507E050FE4F42
:100D6C000895DF01F201EE0FFF1FAE0FBF1F0895B4
:100D7C00E2E0F0E0ED93FC93E1E0EC83249608953F
:100D8C002497E0E0E883E983EFEFEA83EB834424E4
:100D9C0055240895E2E0F0E0E419F509A6E0B0E08E
:100DAC0076D0E050FE4FDDCFAA81BB81E2E0F0E0CF
:100DBC00EA1BFB0BA6E0B0E06AD0E050FE4FAECFD2
:100DCC002497E0E0E883E983EA83EB8366247724C5
:100DDC000895EA81FB813196EA83FB830895249779
:100DEC00E0E0E883E983EA83EB8344245524089507
:100DFC001A931A2FE0911602EA93E12F0895EA2B29
:100E0C00E0931702AE2F84CDE0931702AE2F80CD66
:100E1C001A930A931A2F0A81089508DDA3E0B0E013
:100E2C009DC0A0E3F3DC84EF91E00197F1F7089506
:100E3C002A93AD85BE85EF85F88909950895E889D3
:100E4C00F9893497E88BF98B0895AD85BE85EF85CC
:100E5C00F88909950895A889B9891496ED91FD91A1
:100E6C00EE83FF83AE81BF8108955A934A933A93E0
:100E7C002A931A930A9308955D814C813B812A81B0
:100E8C00198108810895F195E195F0400895FA9F34
:100E9C00F02DEB9FF00DEA9FE02DF10D08956E2FD4
:100EAC006A9FF0016B9FF00D08950590F491E02D71
:100EBC0008957A936A93FA93EA9308954098419827
:100ECC00389A399815C039983898EE270000319B1C
:100EDC000895309B089504D0399A02D0389AE1E0F5
:100EEC006CE007C0399A389A03D03898F9DF3998F2
:100EFC0069E16A95F1F7089578E03898F1DF309B55
:100F0C00FECFEEDF889431990894389AF1DFEE1F0A
:100F1C007A9599F7AA2311F4399801C0399AE0DF30
:100F2C003898E6DF389ADCDF3998DACF78E0AA0F08
:100F3C0010F4399801C0399ADBDF3898D1DF309B37
:100F4C00FECFCEDF389A7A9591F73998C9DF389869
:100F5C00CFDFE1E03199EE27389AC2CF109639F005
:100F6C00A89588E893E10197F1F71197C9F70895CF
:00000001FF
