:0C0000000C944E010C9400000C940000C5
:10000C000C9400000C9400000C9400000C94000064
:10001C000C9400000C9400000C9400000C94000054
:10002C000C9400000C9400000C94EB010C94000058
:10003C000C9400000C9400000C9400000C94000034
:10004C000C9400000C9488010C9400000C94B801E2
:10005C000C9400000C9400000C9400000C94000014
:10006C000C9400000C9400000C9400000C94000004
:10007C0005072060000000000000005F0000000782
:10008C00000700147F147F14242A7F2A12231308DC
:10009C00646236495522500005030000001C2241C1
:1000AC00000041221C00082A1C2A0808083E0808E7
:1000BC00005030000008080808080030300000200C
:1000CC00100804023E5149453E00427F4000426107
:1000DC005149462141454B311814127F1027454593
:1000EC0045393C4A494930017109050336494949AA
:1000FC0036064949291E00363600000056360000E7
:10010C00000814224114141414144122140800027F
:10011C0001510906324979413E7E1111117E7F4908
:10012C004949363E414141227F4141221C7F494988
:10013C0049417F090901013E414151327F080808BC
:10014C007F00417F41002040413F017F0814224144
:10015C007F404040407F0204027F7F0408107F3EB6
:10016C004141413E7F090909063E4151215E7F090B
:10017C00192946464949493101017F01013F404057
:10018C00403F1F2040201F7F2018207F631408143D
:10019C00630304780403615149454300007F4141E6
:1001AC00020408102041417F0000040201020440B7
:1001BC0040404040000102040020545454787F48D1
:1001CC004444383844444420384444487F385454D8
:1001DC005418087E090102081454543C7F08040486
:1001EC007800447D40002040443D00007F102844AE
:1001FC0000417F40007C041804787C0804047838A3
:10020C00444444387C14141408081414187C7C08D6
:10021C000404084854545420043F4440203C4040BB
:10022C00207C1C2040201C3C4030403C44281028A2
:10023C00440C5050503C4464544C4400083641002B
:10024C0000007F0000004136080002010204027F1A
:10025C004141417F1027E80364000A0001000010AF
:10026C00000110000100000103070F1F3F7FFF007A
:10027C000D0A5465616D204E6F20320001002D4E29
:10028C00414E00494E46000001002F048802000038
:10029C00F894EE27EFBBF1E0F5BFE5BFF8E1A895C8
:1002AC00A4B7A77FA4BFF0936000E09360008DE03B
:1002BC00A2E0BB27ED938A95E9F780E094E0A0E0FB
:1002CC00B1E0ED930197E9F7E4E9F2E085919591BE
:1002DC00009761F0A591B59105901590BF01F001C3
:1002EC0005900D920197E1F7FB01F0CFE0E0EEBB3A
:1002FC00EABDEBBDEFEFEDBFE4E0EEBFC0E0D2E056
:10030C000C94F101E9D31A930A931091C000009157
:10031C00C600E12FEC7181F4E32D3394F0E0E35E41
:10032C00FD4F0083E8E0E31509F433245394E8E02F
:10033C00E51511F45524F09A0991199123C01A93DB
:10034C005520F1F3E22D2394F0E0E35EFD4F108194
:10035C00E8E0E21509F42224F8945A947894E12FF9
:10036C000C942F04B9D3662069F06A94E72D73942A
:10037C00F0E0EB5DFD4FE081E093C600E8E0E715AF
:10038C0009F47724E991EFBFF991E9911895AA93B3
:10039C00E8E0E615E9F3F894662021F4E091C0005A
:1003AC00E07269F4E42D4394F0E0EB5DFD4FA8811D
:1003BC00A083E8E0E41509F44424639403C0E881C5
:1003CC00E093C60078940C943F045E9B02C05E9848
:1003DC0001C05E9A18952897D9D3ECE7F0E0E88332
:1003EC00F983E0E0EA83EB83EC83ED83EE81EE7F2F
:1003FC00EE83ED7FEE83EB7FEE83E77FEE83E0E829
:10040C00EF83DE0138D243D078945E9AA8955520BC
:10041C0079F095DF1E2F1F3341F4ECE7F2E0FA93ED
:10042C00EA9380E0C8D1229603C0A12FAF5FAFDF63
:10043C004D9921C0AEE1B0E0F9D34D991CC04D9956
:10044C0002C0A895FCCFA0918900AC3431F449D3FB
:10045C00E3E1E0938900E0E10CC0A0918900A331B5
:10046C0031F43FD3EFE2E0938900E0E202C039D3EC
:10047C003ED3E093880000E0033038F45C9A87E0C8
:10048C008A95F1F75C980F5FF7CFC0CFFFCFE0E80C
:10049C00E0936100E0E0E0936100E2B9E1B9E5B915
:1004AC00E4B9E8B9E7B9E0E2EBB9E8E5EAB9E0E0CC
:1004BC00E4BDE5BDE6BDE7BDE8BDE0938000EDE041
:1004CC00E09381000ED3E0E0E0938700E093860098
:1004DC000ED3E0938800E0E0E0938B00E0938A0079
:1004EC00E093B600E093B000E093B100E093B2006B
:1004FC00E093B300E093B400E0936900EDBBE093AC
:10050C006800E0936E00E2E0E0936F00E0E0E093BF
:10051C007000E093C000E8EDE093C100E6E0E093EA
:10052C00C200E0E0E093C500E1E8E093C400E0E045
:10053C00E093C900E0E8E0BFE0E0E0937B00E093EB
:10054C007F00A895E8E1E0936000E8E0E0936000AC
:10055C000895BA93AA93AA811ADFA881B981ED9163
:10056C00FD913196FE93EE9323960895BA93AA9338
:10057C002697F6D210E0AC85BD85E0E0F0E0ED9377
:10058C00FC93EA89FB893196EA8BFB8B3197E491DA
:10059C002E2FE03009F408C1E12FE03031F4253280
:1005AC0011F411E001C0A8D2FEC0E130A1F4253253
:1005BC0011F4A2D2F7C012E040E000E02D3211F4A9
:1005CC0001E0F1C02B3211F44BE2EDC0203211F4FA
:1005DC0040E2E9C002C0E23039F450E013E02033CD
:1005EC0011F40068E0C003C0E33009F0DCC0203334
:1005FC0010F02A3308F007C0AAE05A9F502DE22FC2
:10060C00E0535E0FD0C0E22FE33639F47CD2E88998
:10061C00F989A481AA937DD2C5C0E33729F473D29A
:10062C007ED241D21E2F07C0E03749F46CD277D26C
:10063C0046D21E2F086002600F7730E037C0E436D8
:10064C0011F0E93611F4046002C0E53731F4E0E64C
:10065C00F2E0EE83FF8315E00CC0E83511F408607E
:10066C0003C0E83709F09EC0EAE6F2E0EE83FF83B0
:10067C0014E002FF15C047D2A889B9891496ED91F0
:10068C00FD91EA87FB87AB85AA2322F477D2EA8710
:10069C00FB874DE2403011F01F5F01C00B7F06C09D
:1006AC0032D2A889B98945D2EA87FB8700FD10C0F0
:1006BC00151770F407FF08C002FF04C00B7F242F2E
:1006CC00115001C020E301C020E216D25150F0CFEE
:1006DC00312F01FF16C0303099F003FF06C0EE81B8
:1006EC00FF812591EE83FF8305C0AE81BF812D91E3
:1006FC00AE83BF8301D2503009F051503150EBCF53
:10070C0048C020E3EE81FF813DD2E887F987EE8176
:10071C00FF813296EE83FF83E885F985AA85BB8538
:10072C00AE17BF0750F02F5FA885B985EA85FB850A
:10073C00EA1BFB0BEA87FB87EFCF2A3328F003FF7A
:10074C0002C0295F01C0295D04FD19C0213320F4CA
:10075C00A885B985119709F409C0531710F000FF4B
:10076C0001C011C020E207FF0AC020E3006102FFB4
:10077C0006C00B7F4A93CDD1503009F05150BCD1FB
:10078C00503009F051503150A885B985129708F0B6
:10079C00B8CF00FF07C0503029F05150E0E2EA9387
:1007AC00B8D1F9CF10E0EDCEAC85BD85ED91FD91C2
:1007BC00DED164960895FF92F82E26971A930A9329
:1007CC00DE0114960024AF0DB01D8D01E0E0EC832A
:1007DC00ED83EE83EF83DE0118960024AF0DB01D80
:1007EC00ED91FD91FA93EA931A930A93EFEAF2E0F2
:1007FC00FA93EA93DE011896B9DE198108812896DE
:10080C00FF900895AA93C7D1A8E7F8D1A0E0F6D13C
:10081C00A881F4D1CFD12DC01A9310912D02E12FC4
:10082C00E295EF70E061AE2FEDDFE12FEF70AE2FB0
:10083C00E9DFE0912E02E06BAE2FE4DFA0912E02F7
:10084C00E0E8EA9FF001DF01E12FF0E0EA0FFB1F87
:10085C004F0119910895AA93E981E0932D02E88143
:10086C00E0932E02D9DF0DC1AA93A1E8CBDFA881BA
:10087C00C9DF21960895BA93AA9372D1089A109A57
:10088C001098A2E0B0E0D2D1109AEE81FF8130979F
:10089C00A1F1E681E17011F0E1EA01C0E0EA1E2F5E
:1008AC00EE81FF81E681E27011F0E8EC01C0E0EC32
:1008BC000E2FEE81FF81E681E47011F0E2E101C0C0
:1008CC00E2E03E2FEE81FF81E681E87011F0E0E17D
:1008DC0001C0E4E12E2FEE81FF815781AE81BF81F3
:1008EC00ED91FD912BD1AE81BF811296ED91FD91D1
:1008FC002AD1AE81BF811DD10DC010EA00EC32E0CF
:10090C0024E150E8E0E0F0E019D1E0E0F0E01BD1A8
:10091C00E0E0F0E0E0931B02F0931C02A12F72DFE9
:10092C00A02F70DFAAED6EDFA32F6CDFA8EA6ADFC1
:10093C00AFE168DFA5ED66DFA0E764DFA9ED62DF5C
:10094C00243111F4E1EF01C0E2E2AE2F5BDFABED3D
:10095C0059DFA0E457DFA52F87DFA0E453DFA3ED19
:10096C0051DFA0E04FDFADE84DDFA22F4BDFA4EA53
:10097C0049DFA6EA47DFA8ED45DFA0E043DFAFEA99
:10098C0041DFA6E9B0E052D1E1E0E0930002E0E003
:10099C00E0930102E1E0E0930602E0930702E093AA
:1009AC000802EFEFE0930902E1E0E0931002E1E1CD
:1009BC00F2E0FA93EA93EFEFEA93A8E0B0E063D0A9
:1009CC0004D0E1E0D4D028960895CCD000E030E0FB
:1009DC00E0910102E03009F03FEFEFE2F2E0FA9330
:1009EC00EA933A93A0E0B2E04ED00430A0F4E0E0F9
:1009FC00EA93A02F0F5F2FDFCED0A8E7FFD0A0E4A3
:100A0C00FDD010E0A12F1F5FA03818F4A32FF6D053
:100A1C00F9CFD0D0EACFE0E0EA93A0E01CDFE0E031
:100A2C00EA93A0E023D0A5D02496089591D01CF091
:100A3C00E0E0F0E026C0A881B981A038E0E0BE0774
:100A4C001CF0EFE7F0E01DC0E881F9811AC080D0FE
:100A5C001CF0E0E0F0E015C0A881B98190971CF083
:100A6C00EFE1F0E00EC0E881F9810BC0AA93A981F7
:100A7C00BB27DCDFE0930202A881BB27E8DFE09311
:100A8C00030222960895BA93AA93B981A88110966D
:100A9C0031F0FC81EB816A8161931197E9F7EB816D
:100AAC00FC8125960895BA93AA93A991B991EE2742
:100ABC00FF276D91662311F03196FBCF0895BA9301
:100ACC00AA93AA27BB27E991F9910590002011F070
:100ADC001196FBCFFD010895EA93FA93EFB7EA93D1
:100AEC000895E0E0E0938500E09384000895ECE441
:100AFC00E0938900E0E408952A93AD85BE85EF85E7
:100B0C00F88909950895E889F9893497E88BF98B68
:100B1C000895AD85BE85EF85F88909950895A88956
:100B2C00B9891496ED91FD91EE83FF83AE81BF815F
:100B3C0008951496ED91FC9111970895E093040299
:100B4C00F09305020895E0931902F0931A020895A8
:100B5C00BA93AA93A881B98100240A160B060895AA
:100B6C005A934A933A932A931A930A9308955D8160
:100B7C004C813B812A81198108810895F195E19579
:100B8C00F04008950590F491E02D08954098419817
:100B9C00389A399815C039983898EE270000319B4F
:100BAC000895309B089504D0399A02D0389AE1E028
:100BBC006CE007C0399A389A03D03898F9DF399825
:100BCC0069E16A95F1F7089578E03898F1DF309B88
:100BDC00FECFEEDF889431990894389AF1DFEE1F3E
:100BEC007A9599F7AA2311F4399801C0399AE0DF64
:100BFC003898E6DF389ADCDF3998DACF78E0AA0F3C
:100C0C0010F4399801C0399ADBDF3898D1DF309B6A
:100C1C00FECFCEDF389A7A9591F73998C9DF38989C
:100C2C00CFDFE1E03199EE27389AC2CF109639F038
:100C3C00A89588E893E10197F1F71197C9F7089502
:00000001FF
